:04000000DCEF01F040
:10000800E9CF08F0EACF09F0E1CF0AF0B0ED0FF040
:10001800D8CF1EF0E8CF1FF0E0CF20F0E9CF21F0D5
:10002800EACF22F0E1CF23F0E2CF24F0D9CF25F0B8
:10003800DACF26F0F3CF27F0F4CF28F0F6CF29F067
:10004800F7CF2AF0F8CF2BF0F5CF2CF03AC02DF0EF
:100058003BC02EF03CC02FF040C030F041C031F022
:1000680014EE52F0000E496E010E486E000E336E0B
:10007800000E326E000E0001F56FD00EF46FF2A480
:1000880009D0D59E12EC1AF0F294670ED76E6A0E5C
:10009800D66ED58E9EAC63D112EC1AF0000E396E76
:1000A800000E386E39BE06D0395018E1020E385CA1
:1000B800D8B014D0E70E3824D96E000E3920DA6E85
:1000C800F4C0E6FFF5C0E6FFE8EC20F03A50DF6E3A
:1000D8000001F44BF52B384A392AE4D7E70EE66ECF
:1000E800000EE66EADEC17F03AC0DDF03BC0DEF076
:1000F800D6C0E6FFD7C0E6FFD8C0E6FFDDC0E6FF02
:10010800DEC0E6FF65EC20F03AC0E6FF3BC0E6FF44
:100118003CC0E6FFDEEC1CF03AB01BD1000E4D6E81
:10012800010E4C6E818AD59EE6EC18F017C036F0A9
:1001380018C037F0000E356E000E346E36043710D6
:10014800D8A4E4D0B00EE66E790EE66EF8EC1EF098
:10015800900EE66E7F0EE66EF8EC1EF0CD0EE66EA3
:100168007F0EE66EF8EC1EF0A6EC1FF081A813D007
:1001780085EC1DF0ACA2FED7E0C0ADFFE0C0DFF01B
:10018800A6EC1FF002D085EC1DF0410E0001E0192D
:10019800D8B40ED0F8D7F3EC20F03A500001DF6F56
:1001A800ACA2FED7DFC0ADFF0D0EAE18D8A4FCD7A9
:1001B800310E0001DF19D8B4E2EC10F00D0EE66E36
:1001C8007C0EE66EF8EC1EF05C0EE66E7E0EE66EB9
:1001D800F8EC1EF0CD0EE66E7F0EE66EF8EC1EF023
:1001E800A6EC1FF081A813D085EC1DF0ACA2FED7B9
:1001F800E0C0ADFFE0C0DFF0A6EC1FF002D085EC58
:100208001DF0410E0001E019D8B40ED0F8D7F3EC78
:1002180020F03A500001DF6FACA2FED7DFC0ADFF7F
:100228000D0EAE18D8A4FCD7310E0001DF19D8A4E2
:100238001ED0E20E0001F26F7F0E0001F36F14EC86
:1002480021F0D58EFCEC1FF0450EE66E50C0E6FF9F
:1002580051C0E6FF97EC20F0350EE66E7C0EE66E98
:10026800F8EC1EF0A6EC1FF0A6EC1FF067D0300EDD
:100278000001DF19D8A41ED0D59E9D9C819A440EFA
:10028800E66E50C0E6FF51C0E6FF97EC20F0FCECAC
:100298001FF0E50EE66E7B0EE66EF8EC1EF0E00E43
:1002A8000001F26F7F0E0001F36FA6EC1FF0A6ECC1
:1002B8001FF044D0E20E0001F26F7F0E0001F36FD1
:1002C800B90EE66E7F0EE66EF8EC1EF03B0EE66E9B
:1002D8007B0EE66EF8EC1EF0A6EC1FF014EC21F095
:1002E800D58EFCEC1FF0450EE66E50C0E6FF51C0FF
:1002F800E6FF97EC20F0350EE66E7C0EE66EF8EC25
:100308001EF0A6EC1FF0A6EC1FF018D036503710E0
:10031800D8A414D0620EE66E7F0EE66EF8EC1EF0DE
:10032800000E356E010E346EA6EC1FF0A6EC1FF021
:10033800E6EC18F017C036F018C037F0460447103E
:10034800D8B4F8D6790EE66E7E0EE66EF8EC1EF09E
:1003580005D081BA02D0818A01D0819A9E9C31C091
:1003680041F030C040F02FC03CF02EC03BF02DC013
:100378003AF02CC0F5FF2BC0F8FF2AC0F7FF29C0C0
:10038800F6FF28C0F4FF27C0F3FF26C0DAFF25C018
:10039800D9FF24C0E2FF23C0E1FF22C0EAFF21C049
:1003A800E9FF20C0E0FF1FC0E8FF1EC0D8FF100013
:1003B80010EEF6F075EF1FF0A50E0001AE6F000EFF
:1003C8000001AF6F83EF07F0250E0001C319D8B401
:1003D8000BD0A1C0D9FFA2C0DAFFC3C0DFFF000164
:1003E800A14BA22B83EF07F0000E0001B36F000EA4
:1003F800B26F000E0001B16F000EB06FA3C0F6FF20
:10040800A4C0F7FF0800F550E66E49EC20F03AA0CA
:1004180040D0000E0001B36F000EB26F0A0EE66EF8
:10042800000EE66EB2C0E6FFB3C0E6FF23EC1EF096
:100438003AC0B2F03BC0B3F0D00E0001A86FFF0E77
:100448000001A96FA3C0F6FFA4C0F7FF0800F5508C
:100458000001AA6FAB6B0001A8510001AA27000197
:10046800A9510001AB230001AA510001B2270001E4
:10047800AB510001B3230001A34BA42BA3C0F6FF8B
:10048800A4C0F7FF0800F550E66E49EC20F03AB03A
:10049800C5D7A3C0F6FFA4C0F7FF0800F5502E0A81
:1004A800D8A435D00001B18D0001A34BA42B000EB8
:1004B8000001C26F000EC16F1ED00A0EE66E000E5C
:1004C800E66EC1C0E6FFC2C0E6FF23EC1EF0A3C083
:1004D800F6FFA4C0F7FF0800F5503A26000E3B22AD
:1004E800D00E3A240001C16FFF0E3B200001C26FFD
:1004F8000001A34BA42BA3C0F6FFA4C0F7FF08007C
:10050800F550E66E49EC20F03AA00CD0D6D7000E94
:100518000001C26F000EC16F0001B18903D0000154
:10052800B1851AD0A3C0F6FFA4C0F7FF0001A34B02
:10053800A42B0800F5CFC3F00001C351000AD8B4BA
:1005480092EF07F0640AD8B407D0020AD8B4E7D704
:100558000F0AD8A483EF07F0070E0001B115D8B42D
:1005680066D30001B1A905D0000E0001C26F060EC6
:10057800C16FAEC0D9FFAFC0DAFFDECFBEF0DECFAD
:10058800BFF0DDCFC0F0030E0001AE27000EAF2391
:100598000001C0AF11D0BEC080F0BFC081F0C0C0A4
:1005A80082F07FEC20F080C0BEF081C0BFF082C036
:1005B800C0F0030E0001B013000E0001BD6F000E65
:1005C800BC6F0001BE510001BF110001C011D8B4B9
:1005D80092D0820E0001A86FFF0E0001A96FBEC065
:1005E800AAF0BFC0ABF0C0C0ACF0C1C0ADF0100EF7
:1005F80006D00001D890AD33AC33AB33AA33E82E24
:10060800F8D70001AA510001A8250001BC6F000E0F
:100618000001A9210001BD6F0001BC07D8A0BD07DA
:10062800030EE66E000EE66EBCC0E6FFBDC0E6FF38
:1006380023EC1EF03AC0BCF03BC0BDF0BCC086F055
:10064800BDC087F0000E0001896F0A0E886F21EC8B
:100658001CF086C0BCF087C0BDF00001BDAF04D05F
:100668000001BC07D8A0BD070001BC51000899ECE7
:1006780007F08EC0B4F08FC0B5F090C0B6F0BEC021
:10068800E6FFBFC0E6FFC0C0E6FFB4C0E6FFB5C0E6
:10069800E6FFB6C0E6FF10EC12F03AC0B4F03BC07B
:1006A800B5F03CC0B6F0000EE66E800EE66E3F0E6A
:1006B800E66EB4C0E6FFB5C0E6FFB6C0E6FFDEEC06
:1006C8001CF03AB005D00001BC07D8A0BD0713D074
:1006D800000EE66E200EE66E410EE66EB4C0E6FF32
:1006E800B5C0E6FFB6C0E6FFDEEC1CF03AA003D0CA
:1006F8000001BC4BBD2B0001C2BF08D00001C25194
:100708001DE10D0E0001C15DD8B018D00001C15126
:100718007AEC0EF08EC0E6FF8FC0E6FF90C0E6FFD1
:10072800BEC0E6FFBFC0E6FFC0C0E6FF76EC0BF038
:100738003AC0BEF03BC0BFF03CC0C0F00001BDBF36
:1007480008D00001BD512AE10A0E0001BC5DD8B0F5
:1007580025D00001BE510001BF110001C011D8B45D
:100768005FD0BEC092F0BFC093F0C0C094F00BEC55
:1007780017F000019251000193110001941100013A
:100788009511D8A44DD00001BDBF4AD00001BD517C
:1007980005E1020E0001BC5DD8A042D0700EE66EE5
:1007A800890EE66E400EE66EB4C0E6FFB5C0E6FF01
:1007B800B6C0E6FFDEEC1CF03AB003D00001F70E3D
:1007C80002D00001F80EBC27FF0EBD230001BC516A
:1007D80099EC07F08EC0B4F08FC0B5F090C0B6F0B9
:1007E800BEC080F0BFC081F0C0C082F0B4C083F04A
:1007F800B5C084F0B6C085F0FDEC13F080C0B8F049
:1008080081C0B9F082C0BAF083C0BBF0000E00010D
:10081800BE6F000E0001BF6F000E0001C06F33D025
:10082800BEC092F0BFC093F0C0C094F00BEC17F0BC
:1008380092C0B8F093C0B9F094C0BAF095C0BBF0BC
:10084800BEC089F0BFC08AF0C0C08BF0B8C080F0CD
:10085800B9C081F0BAC082F0BBC083F037EC1FF09A
:1008680080C08CF081C08DF082C08EF023EC20F027
:1008780089C0BEF08AC0BFF08BC0C0F0000E000176
:10088800BD6F000EBC6F010E0001C36F0A0E0001A0
:10089800C319D8B41ED00001C351040D550EF3245A
:1008A800F66E750EF420F76E0900F5500001B85D7C
:1008B8000900F5500001B9590900F5500001BA596D
:1008C8000900F5500001BB59D8A003D00001C32B83
:1008D800DDD7C3C0A8F00001A96BA8BFA907000114
:1008E800C1510001A8270001C2510001A92300013C
:1008F800BC510001A8270001BD510001A923000136
:10090800A8510001B25F0001A9510001B35B0001C9
:10091800C1510001C211D8B404D00001B207D8A057
:10092800B307030E0001B0150001A86F000E000107
:10093800B1150001A96F0001A8510001A911D8B48F
:100948000ED009D0A1C0D9FFA2C0DAFF200EDF6EF9
:100958000001A14BA22B0001B207D8A0B3070001E8
:10096800B3BF07D00001B351EDE10001B205D8B023
:10097800E9D7030E0001B0150001A86F000E0001B1
:10098800B1150001A96F0001A8510001A911D8B43F
:1009980055D0A1C0D9FFA2C0DAFF2D0E4DD000015D
:1009A800A14BA22B4BD0B8C080F0B9C081F0BAC01F
:1009B80082F0BBC083F00001C351040D550EF3242F
:1009C800F66E750EF420F76E0900F5CF84F0090075
:1009D800F5CF85F00900F5CF86F00A00F5CF87F04E
:1009E80080EC1CF080C0B4F081C0B5F082C0B6F0D5
:1009F80083C0B7F0B4C08DF0B5C08EF0B6C08FF02C
:100A0800B7C090F00A0E0001916F000E926F000EB1
:100A1800936F000E946FD6EC1DF08DC0B4F08EC0AD
:100A2800B5F08FC0B6F090C0B7F00001B451300FE8
:100A3800A1C0D9FFA2C0DAFFDF6EB1D70001C3079A
:100A48000001C329D8B40ED0AED7A1C0D9FFA2C027
:100A5800DAFF300EDF6E0001A14BA22B0001BC07AC
:100A6800D8A0BD070001BDBF07D00001BD51EDE111
:100A78000001BC05D8B0E9D70001C2BF0CD0000105
:100A8800C25105E1090E0001C15DD8A004D0080ECD
:100A98000001C36F02D0C1C0C3F00001C3510001FF
:100AA800C15F000E0001C3BFFF0E0001C25B000161
:100AB800C3510001D8B409D0A1C0D9FFA2C0DAFF40
:100AC8002E0EDF6E0001A14BA22BBEC0E6FFBFC0F9
:100AD800E6FFC0C0E6FF0001C35199EC07F08EC0E5
:100AE800E6FF8FC0E6FF90C0E6FF10EC12F03AC0B8
:100AF80092F03BC093F03CC094F00BEC17F092C01E
:100B0800B8F093C0B9F094C0BAF095C0BBF074D0F7
:100B1800B8C080F0B9C081F0BAC082F0BBC083F021
:100B28000001C351040D550EF324F66E750EF42022
:100B3800F76E0900F5CF84F00900F5CF85F00900BC
:100B4800F5CF86F00A00F5CF87F080EC1CF080C066
:100B5800B4F081C0B5F082C0B6F083C0B7F0B4C0BD
:100B68008DF0B5C08EF0B6C08FF0B7C090F00A0E09
:100B78000001916F000E926F000E936F000E946F3C
:100B8800D6EC1DF08DC0B4F08EC0B5F08FC0B6F0B5
:100B980090C0B7F00001B451300FA1C0D9FFA2C076
:100BA800DAFFDF6E0001A14BA22BB8C08DF0B9C0EF
:100BB8008EF0BAC08FF0BBC090F00001C351040D95
:100BC800550EF324F66E750EF420F76E0900F5CF76
:100BD80091F00900F5CF92F00900F5CF93F00A00E3
:100BE800F5CF94F0D6EC1DF08DC0B8F08EC0B9F0FA
:100BF8008FC0BAF090C0BBF00001C3070001C32941
:100C0800D8B40ED085D7A1C0D9FFA2C0DAFF300E64
:100C1800DF6E0001A14BA22B0001C107D8A0C207BB
:100C28000001C1510001C211D8B469D1ECD7AEC0DE
:100C3800D9FFAFC0DAFFDECFB8F0DDCFB9F00001E1
:100C4800000EB9BFFF0EBA6FBB6F020E0001AE27D0
:100C5800000EAF230001BBAF0CD0030E0001B01390
:100C68000001BB1FBA1FB91FB86D000EB923BA2304
:100C7800BB230001C1510001C211D8A40DD000014D
:100C8800B8510001B9110001BA110001BB11D8A473
:100C980003D00001C14BC22B010E0001C36F0A0E25
:100CA8000001C319D8B41ED00001C351040D550E5C
:100CB800F324F66E750EF420F76E0900F550000166
:100CC800B85D0900F5500001B9590900F550000157
:100CD800BA590900F5500001BB59D8A003D000014A
:100CE800C32BDDD7800E0001C3BF7F0E0001A86FA4
:100CF8000001C1510001C35D0001C251800A000119
:100D0800A859D8B003D0C1C0C3F018D00001C2514F
:100D1800800A0001A86F0001C3510001C15D800E67
:100D28000001C3BF7F0E0001A859D8B007D0000149
:100D3800C3510001C16FC26BC1BFC2070001B251EC
:100D48000001B311D8B414D0030E0001B01500018E
:100D5800A86F000E0001B1150001A96F0001A8518C
:100D68000001A911D8B404D00001B207D8A0B30774
:100D78000001B1AD1ED00001B2510001C15D0001FA
:100D8800C251800A0001A86F0001B351800A000116
:100D9800A859D8B009D00001C1510001B25F0001C3
:100DA800C2510001B35B05D0000E0001B36F000E05
:100DB800B26F800E0001C3BF7F0E0001A86F000153
:100DC800B2510001C35D0001B351800A0001A85966
:100DD800D8B00BD00001C3510001B25F000E000172
:100DE800C3BFFF0E0001B35B05D0000E0001B36F57
:100DF800000EB26F0001B2510001B311D8B413D084
:100E0800A1C0D9FFA2C0DAFF200EDF6E0001A14BFE
:100E1800A22B0001B207D8A0B3070001B25100010C
:100E2800B311D8A4EDD7030E0001B0150001A86FC7
:100E3800000E0001B1150001A96F0001A8510001C1
:100E4800A911D8B451D0A1C0D9FFA2C0DAFF2D0E84
:100E5800DF6E47D0C1C0A8F0C2C0A9F00001D89089
:100E6800A837A9370001D890A837A937550E00012F
:100E7800A825F66E750EA921F76E0900F5CF84F046
:100E88000900F5CF85F00900F5CF86F00A00F5CF07
:100E980087F0B8C080F0B9C081F0BAC082F0BBC09A
:100EA80083F080EC1CF080C08DF081C08EF082C091
:100EB8008FF083C090F00A0E0001916F000E926FC0
:100EC800000E936F000E946FD6EC1DF000018D514B
:100ED800300F0001C36FA1C0D9FFA2C0DAFFC3C0A1
:100EE800DFFF0001A14BA22B0001C107D8A0C20758
:100EF8000001C129AFE10001C229D8A4ABD7A3C022
:100F0800F6FFA4C0F7FF0001A34BA42B0800F5CF00
:100F1800C3F00001C351D8A4E8EF01F0A1C0D9FF84
:100F2800A2C0DAFF000EDF6E12000001916F00010F
:100F380091AF1FD10001916D00019151800A120FEC
:100F4800D8A0A3D0030EE66E000EE66E000E0001D8
:100F5800836F0A0E826F000191510001806F816BCF
:100F680080BF810734EC1DF0000180C0E6FF00015E
:100F780081C0E6FF23EC1EF07D0E3A24F66E750E56
:100F88003B20F76E0900F5CFE6FF0900F5CFE6FF35
:100F98000900F5CFE6FF030EE66E000EE66E000EC2
:100FA8000001896F0A0E886F000E0001836F640EBE
:100FB800826F000191510001806F816B80BF8107B2
:100FC80034EC1DF080C086F081C087F021EC1CF065
:100FD800090E00018627000E00018723000186C044
:100FE800E6FF000187C0E6FF23EC1EF07D0E3A24E1
:100FF800F66E750E3B20F76E0900F5CFE6FF090087
:10100800F5CFE6FF0900F5CFE6FF030EE66E000E0A
:10101800E66E000E0001896F640E886F0001915121
:101028000001866F876B86BF870721EC1CF0120EC4
:1010380000018627000E00018723000186C0E6FF15
:10104800000187C0E6FF23EC1EF07D0E3A24F66E01
:10105800750E3B20F76E0900F5CFE6FF0900F5CFC6
:10106800E6FF0900F5CFE6FF10EC12F03AC0E6FF04
:101078003BC0E6FF3CC0E6FF10EC12F03AC08EF031
:101088003BC08FF03CC090F0120000019151800AE3
:10109800750FD8A05BD0030EE66E000EE66E000E4C
:1010A8000001836F0A0E826F000191510001806F69
:1010B800816B80BF810734EC1DF0000180C0E6FF22
:1010C800000181C0E6FF23EC1EF07D0E3A24F66E87
:1010D800750E3B20F76E0900F5CFE6FF0900F5CF46
:1010E800E6FF0900F5CFE6FF030EE66E000EE66E9A
:1010F800000E0001896F0A0E886F000191510001EE
:10110800866F876B86BF870721EC1CF0090E0001EC
:101118008627000E00018723000186C0E6FF000134
:1011280087C0E6FF23EC1EF07D0E3A24F66E750E9E
:101138003B20F76E0900F5CFE6FF0900F5CFE6FF83
:101148000900F5CFE6FF10EC12F098D70001915195
:10115800030D7D0EF324F66E750EF420F76E09006C
:10116800F5CF8EF00900F5CF8FF00A00F5CF90F09B
:10117800120000019151800A120FD8A0A3D0030ECB
:10118800E66E000EE66E000E0001836F0A0E826F97
:10119800000191510001806F816B80BF810734ECA1
:1011A8001DF0000180C0E6FF000181C0E6FF23ECCE
:1011B8001EF0A40E3A24F66E750E3B20F76E090059
:1011C800F5CFE6FF0900F5CFE6FF0900F5CFE6FF0A
:1011D800030EE66E000EE66E000E0001896F0A0E21
:1011E800886F000E0001836F640E826F00019151B9
:1011F8000001806F816B80BF810734EC1DF080C0D7
:1012080086F081C087F021EC1CF0090E00018627CA
:10121800000E00018723000186C0E6FF000187C099
:10122800E6FF23EC1EF0A40E3A24F66E750E3B2062
:10123800F76E0900F5CFE6FF0900F5CFE6FF0900D4
:10124800F5CFE6FF030EE66E000EE66E000E000117
:10125800896F640E886F000191510001866F876B5A
:1012680086BF870721EC1CF0120E00018627000EAE
:1012780000018723000186C0E6FF000187C0E6FF62
:1012880023EC1EF0A40E3A24F66E750E3B20F76E82
:101298000900F5CFE6FF0900F5CFE6FF0900F5CF15
:1012A800E6FF10EC12F03AC0E6FF3BC0E6FF3CC098
:1012B800E6FF10EC12F03AC08EF03BC08FF03CC055
:1012C80090F0120000019151800A750FD8A05BD0F0
:1012D800030EE66E000EE66E000E0001836F0A0E26
:1012E800826F000191510001806F816B80BF81077F
:1012F80034EC1DF0000180C0E6FF000181C0E6FF6C
:1013080023EC1EF0A40E3A24F66E750E3B20F76E01
:101318000900F5CFE6FF0900F5CFE6FF0900F5CF94
:10132800E6FF030EE66E000EE66E000E0001896F02
:101338000A0E886F000191510001866F876B86BF86
:10134800870721EC1CF0090E00018627000E00011A
:101358008723000186C0E6FF000187C0E6FF23EC73
:101368001EF0A40E3A24F66E750E3B20F76E0900A7
:10137800F5CFE6FF0900F5CFE6FF0900F5CFE6FF58
:1013880010EC12F098D700019151030DA40EF3242C
:10139800F66E750EF420F76E0900F5CF8EF0090091
:1013A800F5CF8FF00A00F5CF90F01200070EE12676
:1013B800000EE222FCEC1FF04C6A4D6A380EE66E15
:1013C8007B0EE66EF8EC1EF03D0EE66E7E0EE66EC7
:1013D800F8EC1EF0860EE66E780EE66EF8EC1EF05F
:1013E800ED0EE66E7C0EE66EF8EC1EF0F2C0E6FF3F
:1013F800F3C0E6FFF8EC1EF0350EE66E7D0EE66EE5
:10140800F8EC1EF0FE0EE36AFF0EE36AFF0EE3BE81
:101418000AD0FF0EE35028E1FE0EE3CF3AF0050EA6
:101428003A5ED8B021D0FE0EE3CF3BF0FF0EE3CFFB
:101438003CF0F90EE124446EFF0EE220456E3B506D
:101448004424D96E3C504520DA6EFE0EE3CF3BF0C3
:10145800FF0EE3CF3CF0E10E3B24E96E000E3C208A
:10146800EA6EDFCFEFFF0ED0FE0EE3CF3BF0FF0EAC
:10147800E3CF3CF0E10E3B24D96E000E3C20DA6E3F
:10148800000EDF6EFE0EE350010F3A6EFE0E3AC0FC
:10149800E3FF3A6AFF0EE3503A203A6EFF0E3AC075
:1014A800E3FFFF0EE3BEB2D7FF0EE35007E1FE0EE7
:1014B800E3CF3AF0060E3A5ED8A0A8D7E10E0001B5
:1014C800A16F000E0001A26FF00E0001A36F7F0E46
:1014D8000001A46FD6C0A5F0D7C0A6F0D8C0A7F069
:1014E800E0EC01F0E10EE66E000EE66EF8EC1EF0A0
:1014F800ACA2FED7A70EAD6EACA2FED7460EAD6E5F
:10150800110EE66E7D0EE66EF8EC1EF0FC0EE12480
:101518003B6EFF0EE2203C6E3BC0A1F03CC0A2F047
:10152800FB0E0001A36F7F0E0001A46FDDC0A5F0C4
:10153800DEC0A6F0E0EC01F0FC0EE124E66EFF0E42
:10154800E220E66EF8EC1EF0ACA2FED7A70EAD6E58
:10155800ACA2FED7460EAD6EC90EE66E7C0EE66EE8
:10156800F8EC1EF0F0C0E6FFF1C0E6FFF8EC1EF064
:10157800A50EE66E7C0EE66EF8EC1EF0EEC0E6FFF9
:10158800EFC0E6FFF8EC1EF0380EE66E7B0EE66E56
:10159800F8EC1EF0CB0EE66E750EE66EF8EC1EF05B
:1015A800080EE66E780EE66EF8EC1EF01E0EE66E7D
:1015B8007E0EE66EF8EC1EF0CC0EE66E7E0EE66E43
:1015C800F8EC1EF07D0EE66E7D0EE66EF8EC1EF071
:1015D800670EE66E7B0EE66EF8EC1EF0510EE66EB8
:1015E8007A0EE66EF8EC1EF0770EE66E790EE66E71
:1015F800F8EC1EF0010EE66E7F0EE66EF8EC1EF0BB
:10160800CD0EE66E7F0EE66EF8EC1EF0A6EC1FF02F
:1016180081A813D085EC1DF0ACA2FED7E0C0ADFFC9
:10162800E0C0DFF0A6EC1FF002D085EC1DF0410E03
:101638000001E019D8B40ED0F8D7F3EC20F03A50F6
:101648000001DF6FACA2FED7DFC0ADFF0D0EAE18F4
:10165800D8A4FCD70001DB6BDC6B24D0FCEC0CF0CD
:10166800A5DE35D04EEC16F0A1DE31D090EC15F0A9
:10167800F7D7BDEC20F0F4D7ABEC20F0F1D719EC9C
:1016880021F0EED74B0EE66E7F0EE66EF8EC1EF0FC
:10169800A6EC1FF0A6EC1FF0000E0001DC6F010E97
:1016A800DB6F15D00001DF51300AD8B4E8D7010A42
:1016B800D8B4D4D7030AD8B4D5D7010AD8B4D6D762
:1016C800070AD8B4D6D7010AD8B4D6D7DBD70001D1
:1016D800DB050001DC11D8B46DD6F90EE126FF0E4A
:1016E800E2221200E652E652E6520F0E456EFA0E5C
:1016F800E3CF40F0FB0EE3CF41F0FC0EE3CF42F026
:1017080045283A6E04D0D8904232413240323A2EBF
:10171800FAD74050456EFD0E45C0E3FF0F0E456EEB
:10172800F70EE3CF40F0F80EE3CF41F0F90EE3CF28
:1017380042F045283A6E04D0D890423241324032C5
:101748003A2EFAD74050456EFE0E45C0E3FFFD0E17
:10175800E350D8B418D0E150FD0FD96EE250DA6EDC
:10176800FF0EDA22FE0EE350DE5CD8B014D0FD0E78
:10177800E3CF45F0FE0EE3CF44F04550445C456EA0
:10178800180E456408D0F70EE3CF3AF0F80EE3CF11
:101798003BF0F90E23D0FE0EE350D8B418D0E15038
:1017A800FE0FD96EE250DA6EFF0EDA22FD0EE3501C
:1017B800DE5CD8B016D0FE0EE3CF45F0FD0EE3CFC9
:1017C80044F04550445C456E180E45640AD0FA0E44
:1017D800E3CF3AF0FB0EE3CF3BF0FC0EE3CF3CF057
:1017E80002D1FF0EE36AE382E384FC0EE3AE02D08B
:1017F800FF0EE38EF90EE3AE02D0FF0EE38CFB0E74
:10180800E38EFC0EE36AF80EE38EF90EE36AE1500C
:10181800FD0FD96EE250DA6EFF0EDA22FE0EE350AB
:10182800DE5CD8B035D0D890F70EE336F80EE33644
:10183800F90EE336FE0EE306E150FE0FD96EE250D4
:10184800DA6EFF0EDA22FD0EE350DE18D8B413D09C
:10185800FF0EE306FF0EE3CF45F0070E4516D8B49A
:101868000AD0E1D7D890FC0EE332FB0EE332FA0E31
:10187800E332FD0EE32AE150FD0FD96EE250DA6E35
:10188800FF0EDA22FE0EE350DE18D8B441D0EAD7B4
:10189800E150FE0FD96EE250DA6EFF0EDA22FD0E2D
:1018A800E350DE5CD8B034D0D890FA0EE336FB0EA5
:1018B800E336FC0EE336FD0EE306E150FE0FD96E6B
:1018C800E250DA6EFF0EDA22FD0EE350DE18D8B4CD
:1018D80013D0FF0EE306FF0EE3CF45F0070E4516C3
:1018E800D8B40AD0E1D7D890F90EE332F80EE33233
:1018F800F70EE332FE0EE32AE150FD0FD96EE250F7
:10190800DA6EFF0EDA22FE0EE350DE18D8A4EBD70B
:10191800FF0EE3AE11D0FA0EE31EFB0EE31EFC0E23
:10192800E31EE150FA0FD96EE250DA6EFF0EDA22AA
:10193800DE2A000EDE22DE22FF0EE3AC11D0F70E07
:10194800E31EF80EE31EF90EE31EE150F70FD96E01
:10195800E250DA6EFF0EDA22DE2A000EDE22DE22E6
:10196800FF0EE36AF70EE3503A6EFA0EE3503A269A
:10197800F70E3AC0E3FFF80EE3503A6EFB0EE35061
:101988003A22F80E3AC0E3FFF90EE3503A6EFC0E25
:10199800E3503A22F90E3AC0E3FFF90EE3AE14D051
:1019A800F70EE31EF80EE31EF90EE31EE150F70FE3
:1019B800D96EE250DA6EFF0EDA22DE2A000EDE223F
:1019C800DE22FF0EE36AE32AFF0EE350E66EFC0E0A
:1019D800E350E66EF50EE3CFE6FFE3CFE6FFE3CF95
:1019E800E6FF9FEC1AF0F70EE126FF0EE222120046
:1019F800FCEC1FF0470EE66E780EE66EF8EC1EF073
:101A08001E0EE66E7E0EE66EF8EC1EF05C0EE66EBE
:101A18007C0EE66EF8EC1EF0BC0EE66E7B0EE66EF3
:101A2800F8EC1EF0CD0EE66E7F0EE66EF8EC1EF0BA
:101A3800A6EC1FF081A813D085EC1DF0ACA2FED750
:101A4800E0C0ADFFE0C0DFF0A6EC1FF002D085ECEF
:101A58001DF0410E0001E019D8B40ED0F8D7F3EC10
:101A680020F03A500001DF6FACA2FED7DFC0ADFF17
:101A78000D0EAE18D8A4FCD7000E0001DC6F000EC6
:101A8800DB6F300E0001DF19D8B429D1310E000107
:101A9800DF19D8A415D1E70EE66E7E0EE66EF8ECD7
:101AA8001EF0A6EC1FF081A830D0000E00018A6F4E
:101AB800000E896F00018ABF08D000018A511FE11A
:101AC800040E0001895DD8B01AD085EC1DF0D20E45
:101AD80000018925D96E000E00018A21DA6EE0C066
:101AE800DFFFA6EC1FF0490EE66E770EE66EF8EC07
:101AF8001EF00001894B8A2BDDD785EC1DF0410EC5
:101B08000001E019D8B42BD0F8D7000E00018A6F75
:101B1800000E896F00018ABF08D000018A511BE1BD
:101B2800040E0001895DD8B016D0D20E00018925B7
:101B3800D96E000E00018A21DA6EF3EC20F03A50DB
:101B4800DF6E490EE66E770EE66EF8EC1EF00001C9
:101B5800894B8A2BDFD70D0EAE18D8A4FCD7B5EC6D
:101B68001EF080C087F081C088F000018705000161
:101B78008811D8A49AD0FF0EE66E7D0EE66EF8ECBA
:101B88001EF0A6EC1FF0000E0001DA6F000ED96FF0
:101B980081A843D0000E00018C6F000E8B6F0001EE
:101BA8008CBF08D000018C5132E1040E00018B5D1E
:101BB800D8B02DD085EC1DF0CE0E00018B25D96E46
:101BC800000E00018C21DA6EE0C0DFFFA6EC1FF0EA
:101BD800490EE66E770EE66EF8EC1EF0CE0E0001AA
:101BE8008B25D96E000E00018C21DA6EDF50E66E6F
:101BF800D9C0E6FFDAC0E6FF97EC20F00001D94B28
:101C0800DA2B00018B4B8C2BCAD785EC1DF0410ECB
:101C18000001E019D8B43ED0F8D7000E00018C6F4F
:101C2800000E8B6F00018CBF08D000018C512EE193
:101C3800040E00018B5DD8B029D0CE0E00018B2593
:101C4800D96E000E00018C21DA6EF3EC20F03A50C8
:101C5800DF6E490EE66E770EE66EF8EC1EF0CE0EDD
:101C680000018B25D96E000E00018C21DA6EDF5041
:101C7800E66ED9C0E6FFDAC0E6FF97EC20F0000177
:101C8800D94BDA2B00018B4B8C2BCCD70D0EAE1811
:101C9800D8A4FCD7810EE66E7C0EE66EF8EC1EF03A
:101CA800A6EC1FF0A6EC1FF01AD0840EE66E7A0E92
:101CB800E66EF8EC1EF0A6EC1FF0A6EC1FF00FD0B5
:101CC800A50EE66E7F0EE66EF8EC1EF0A6EC1FF091
:101CD800A6EC1FF0000E0001DC6F010EDB6F0001A7
:101CE800DB050001DC11D8A4120082D60001916F37
:101CF8006D0E00019165A8D0000EE66E000EE66E2E
:101D08003F0EE66E030EE66E000EE66E000E000154
:101D1800836F0A0E826F91C080F00001816B34ECF2
:101D28001DF0000180C0E6FF000181C0E6FF23EC42
:101D38001EF07D0E3A24F66E750E3B20F76E0900F4
:101D4800F5CFE6FF0900F5CFE6FF0900F5CFE6FF7E
:101D5800030EE66E000EE66E000E0001896F0A0E95
:101D6800886F000E0001836F640E826F91C080F04F
:101D78000001816B34EC1DF080C086F081C087F0D3
:101D880021EC1CF0090E00018627000E00018723B4
:101D9800000186C0E6FF000187C0E6FF23EC1EF0C5
:101DA8007D0E3A24F66E750E3B20F76E0900F5CFCE
:101DB800E6FF0900F5CFE6FF0900F5CFE6FF030EC1
:101DC800E66E000EE66E000E0001896F640E886FE5
:101DD80091C086F00001876B21EC1CF0120E000107
:101DE8008627000E00018723000186C0E6FF000158
:101DF80087C0E6FF23EC1EF07D0E3A24F66E750EC2
:101E08003B20F76E0900F5CFE6FF0900F5CFE6FFA6
:101E18000900F5CFE6FF10EC12F03AC0E6FF3BC030
:101E2800E6FF3CC0E6FF10EC12F03AC0E6FF3BC00C
:101E3800E6FF3CC0E6FF10EC12F03AC08EF03BC063
:101E48008FF03CC090F012000A0E0001916563D03B
:101E5800000EE66E000EE66E3F0EE66E030EE66EB0
:101E6800000EE66E000E0001836F0A0E826F91C0AD
:101E780080F00001816B34EC1DF0000180C0E6FFAA
:101E8800000181C0E6FF23EC1EF07D0E3A24F66EB9
:101E9800750E3B20F76E0900F5CFE6FF0900F5CF78
:101EA800E6FF0900F5CFE6FF030EE66E000EE66ECC
:101EB800000E0001896F0A0E886F91C086F000013C
:101EC800876B21EC1CF0090E00018627000E00012B
:101ED8008723000186C0E6FF000187C0E6FF23ECE8
:101EE8001EF07D0E3A24F66E750E3B20F76E090043
:101EF800F5CFE6FF0900F5CFE6FF0900F5CFE6FFCD
:101F080010EC12F03AC0E6FF3BC0E6FF3CC0E6FF2B
:101F180010EC12F092D7000EE66E000EE66E3F0E41
:101F2800E66E00019151030D7D0EF324F66E750ED9
:101F3800F420F76E0900F5CFE6FF0900F5CFE6FFBC
:101F48000900F5CFE6FF10EC12F03AC08EF03BC066
:101F58008FF03CC090F012000600E2CF0BF0D9CF12
:101F68000CF0DACF0DF0F6CF0EF0F7CF0FF0F8CF78
:101F780010F0F5CF11F03AC012F012EEA4F0F2B260
:101F8800F2A8EED081847CEC19F001C015F002C0F3
:101F980016F0000E146E000E136E15041610D8A459
:101FA800ABD08194C00EE66E7D0EE66EF8EC1EF0A6
:101FB8005C0EE66E7E0EE66EF8EC1EF0CD0EE66E5A
:101FC8007F0EE66EF8EC1EF0A6EC1FF081A813D089
:101FD80085EC1DF0ACA2FED7E0C0ADFFE0C0DFF09D
:101FE800A6EC1FF002D085EC1DF0410E0001E019AF
:101FF800D8B40ED0F8D7F3EC20F03A500001DF6FD8
:10200800ACA2FED7DFC0ADFF0D0EAE18D8A4FCD72A
:10201800310E0001DF19D8A41ED0FCEC1FF0FEEC35
:1020280020F0F288450EE66EEAC0E6FFEBC0E6FF58
:1020380097EC20F0E00EE66E7D0EE66EF8EC1EF0F2
:10204800E20E0001F06F7F0E0001F16FA6EC1FF0A9
:10205800A6EC1FF065D0300E0001DF19D8A41CD003
:10206800FCEC1FF0F298440EE66EEAC0E6FFEBC007
:10207800E6FF97EC20F0A00EE66E7D0EE66EF8EC1B
:102088001EF0E00E0001F06F7F0E0001F16FA6EC6C
:102098001FF0A6EC1FF044D0B90EE66E7F0EE66E78
:1020A800F8EC1EF0590EE66E7D0EE66EF8EC1EF0AA
:1020B800E20E0001F06F7F0E0001F16FFCEC1FF0E3
:1020C800FEEC20F0F288450EE66EEAC0E6FFEBC0B3
:1020D800E6FF97EC20F0E00EE66E7D0EE66EF8EC7B
:1020E8001EF0E20E0001F06F7F0E0001F16FA6EC0A
:1020F8001FF0A6EC1FF014D01B0EE66E7F0EE66EE6
:10210800F8EC1EF0000E146E010E136EA6EC1FF014
:10211800A6EC1FF07CEC19F001C015F002C016F017
:1021280013041410D8B435D750C0E6FF51C0E6FFE9
:10213800E8EC20F0450E3A18D8A404D014EC21F0AD
:10214800D58E0DD050C0E6FF51C0E6FFE8EC20F078
:10215800440E3A18D8A403D0D59E9D9C819AF29239
:102168004C044D10D8A40DD08E0EE66E760EE66E99
:10217800F8EC1EF00F0EE66E7B0EE66EF8EC1EF025
:1021880006D0790EE66E7E0EE66EF8EC1EF012C0F2
:102198003AF011C0F5FF10C0F8FF0FC0F7FF0EC0EE
:1021A800F6FF0DC0DAFF0CC0D9FF0BC0E2FF0AC072
:1021B800E1FF09C0EAFF08C0E9FF1100E652E65254
:1021C800E652E6523E0EE66E790EE66EF8EC1EF02A
:1021D800A6EC1FF0000E0001F56FD00EF46F81A879
:1021E80060D0FE0EE36AFF0EE36A85EC1DF0FE0E7A
:1021F800E3CF3BF0FF0EE3CF3CF0E70E3B24D96E74
:10220800000E3C20DA6EE0C0DFFFA6EC1FF0FE0EE9
:10221800E3CF3BF0FF0EE3CF3CF0E70E3B24D96E53
:10222800000E3C20DA6EDF50AD6EFE0EE3CF3BF0C1
:10223800FF0EE3CF3CF0E70E3B24D96E000E3C20A6
:10224800DA6EDF50E66EF4C0E6FFF5C0E6FF97EC05
:1022580020F00001F44BF52BFE0EE350010F3A6E0F
:10226800FE0E3AC0E3FF3A6AFF0EE3503A203A6E98
:10227800FF0E3AC0E3FFFF0EE3BEB7D7FF0EE350F1
:102288000AE1FE0EE3CF3AF0020E3A5ED8B003D070
:10229800ACD785EC1DF0410E0001E019D8B45AD036
:1022A800F8D7FE0EE36AFF0EE36AFE0EE3CF3BF0BB
:1022B800FF0EE3CF3CF0E70E3B24D96E000E3C2026
:1022C800DA6EF3EC20F03A50DF6EFE0EE3CF3BF00F
:1022D800FF0EE3CF3CF0E70E3B24D96E000E3C2006
:1022E800DA6EDF50AD6EFE0EE3CF3BF0FF0EE3CFAC
:1022F8003CF0E70E3B24D96E000E3C20DA6EDF502E
:10230800E66EF4C0E6FFF5C0E6FF97EC20F00001AA
:10231800F44BF52BFE0EE350010F3A6EFE0E3AC059
:10232800E3FF3A6AFF0EE3503A203A6EFF0E3AC0D6
:10233800E3FFFF0EE3BEB9D7FF0EE35007E1FE0E41
:10234800E3CF3AF0020E3A5ED8A0AFD70D0EAE1822
:10235800D8A4FCD7FC0EE36AFD0EE36AFD0EE3BECB
:102368000AD0FD0EE3501FE1FC0EE3CF3AF0030E56
:102378003A5ED8B018D0FC0EE3CF3BF0FD0EE3CFA9
:102388003CF0E70E3B24D96E000E3C20DA6EF4C018
:10239800E6FFF5C0E6FFE8EC20F03A50DF6E0001FA
:1023A800F44BF52B0ED0FC0EE3CF3BF0FD0EE3CF44
:1023B8003CF0E70E3B24D96E000E3C20DA6E000E8E
:1023C800DF6EFC0EE350010F3A6EFC0E3AC0E3FFDD
:1023D8003A6AFD0EE3503A203A6EFD0E3AC0E3FF2A
:1023E800FD0EE3BEBBD7FD0EE35007E1FC0EE3CFC5
:1023F8003AF0030E3A5ED8A0B1D7E70EE66E000EAB
:10240800E66EADEC17F03AC0DDF03BC0DEF0E55209
:10241800E552E552E5521200060EE126000EE222D0
:102428000F0E456EF70EE3CF40F0F80EE3CF41F004
:10243800F90EE3CF42F045283A6E04D0D8904232E4
:10244800413240323A2EFAD74050456EFF0E45C011
:10245800E3FFFF0EE350D8B41DD00F0E456EF40E07
:10246800E3CF40F0F50EE3CF41F0F60EE3CF42F0B4
:1024780045283A6E04D0D8904232413240323A2E42
:10248800FAD74050456EFD0E45C0E3FFFD0EE35000
:10249800D8A407D0000E3A6E000E3B6E000E3C6EBC
:1024A800C3D07B0E456EFD0EE3504524446EE150CB
:1024B800FF0FD96EE250DA6EFF0EDA224450DF26A3
:1024C800F90EE124D96EFF0EE220DA6EDF50456E78
:1024D800FD0E45C0E3FFF60EE124D96EFF0EE220A3
:1024E800DA6EDF50456EE150FD0FD96EE250DA6EBC
:1024F800FF0EDA224550DF1AFD0EE3CF3AF0800EC8
:102508003A16FD0E3AC0E3FFF80EE38EF50EE38EA1
:10251800F60EE36AFA0EE36AFB0EE36AFC0EE36A60
:10252800070E456EFE0E45C0E3FFF70EE3A01BD075
:10253800FA0EE3503A6EF40EE3503A26FA0E3AC019
:10254800E3FFFB0EE3503A6EF50EE3503A22FB0E22
:102558003AC0E3FFFC0EE3503A6EF60EE3503A221F
:10256800FC0E3AC0E3FFD890F90EE332F80EE332DE
:10257800F70EE332D890F40EE336F50EE336F60E96
:10258800E336FE0EE3503A6E010E3A5EFE0E3AC096
:10259800E3FFD8A4CAD7FE0EE36AE380E386F70E0A
:1025A800E3A01BD0FA0EE3503A6EF40EE3503A263D
:1025B800FA0E3AC0E3FFFB0EE3503A6EF50EE35015
:1025C8003A22FB0E3AC0E3FFFC0EE3503A6EF60ED9
:1025D800E3503A22FC0E3AC0E3FFD890F90EE332FA
:1025E800F80EE332F70EE332D890FC0EE332FB0E1E
:1025F800E332FA0EE332FE0EE3503A6E010E3A5E13
:10260800FE0E3AC0E3FFD8A4CAD7FD0EE350E66E2B
:10261800FE0EE350E66EF80EE3CFE6FFE3CFE6FFEB
:10262800E3CFE6FF9FEC1AF0F40EE126FF0EE2225C
:102638001200060EE126000EE2220F0E456EF70E7E
:10264800E3CF40F0F80EE3CF41F0F90EE3CF42F0CC
:1026580045283A6E04D0D8904232413240323A2E60
:10266800FAD74050456EFE0E45C0E3FFFE0EE3501C
:10267800D8B41DD00F0E456EF40EE3CF40F0F50E22
:10268800E3CF41F0F60EE3CF42F045283A6E04D08E
:10269800D8904232413240323A2EFAD74050456EF5
:1026A800FD0E45C0E3FFFD0EE350D8A407D0000E91
:1026B8003A6E000E3B6E000E3C6E96D0FA0EE36A40
:1026C800FB0EE36AFC0EE36A890E456EFD0EE350CD
:1026D8004524446EE150FE0FD96EE250DA6EFF0ECB
:1026E800DA224450DF5EF90EE124D96EFF0EE220B3
:1026F800DA6EDF50456EFD0E45C0E3FFF60EE124AD
:10270800D96EFF0EE220DA6EDF50456EE150FD0F04
:10271800D96EE250DA6EFF0EDA224550DF1AFD0E4E
:10272800E3CF3AF0800E3A16FD0E3AC0E3FFF80EFA
:10273800E38EF90EE36AF50EE38EF60EE36AFF0EFA
:10274800E36AE386E388D890FA0EE336FB0EE336B5
:10275800FC0EE336E150F70FD96EE250DA6EFF0E49
:10276800DA22F40EE350DE5CF50EE350DE58F60E86
:10277800E350DE58D8A018D0F40EE3CF43F0F50E9E
:10278800E3CF44F0F60EE3CF45F0E150F70FD96EF2
:10279800E250DA6EFF0EDA224350DE5E4450DE5A13
:1027A8004550DE5AFA0EE380D890F70EE336F80E5D
:1027B800E336F90EE336FF0EE3503A6E010E3A5E49
:1027C800FF0E3AC0E3FFD8A4BED7FD0EE350E66E75
:1027D800FD0EE350E66EF80EE3CFE6FFE3CFE6FF2B
:1027E800E3CFE6FF9FEC1AF0F40EE126FF0EE2229B
:1027F800120082C086F00001876B886B000181356A
:102808000001863701E387810001865100018E6F40
:1028180000018E51D8A40AD0000E0001806F000E6E
:10282800816F000E826F000E836F120085C086F0E4
:102838000001876B886B000184350001863701E34E
:1028480087810001865100018D6F00018D51D8A448
:102858000AD0000E0001806F000E816F000E826F9B
:10286800000E836F12000001818FFF0E0001801798
:10287800FF0E00018117000E000182170001848FEE
:10288800FF0E00018317FF0E00018417000E0001E0
:102898008517000E0001896F000E8A6F000E8B6F7E
:1028A800000E8C6F7F0E00018E5F00018D51980F16
:1028B80000018E5F180E00018D6F0001D8908937D6
:1028C8008A378B378C37000183510001805D000106
:1028D8008451000181590001855100018259D8A015
:1028E8000ED0000183510001805F00018451000176
:1028F800815B000185510001825B00018981000133
:10290800D89080378137823700018D2FD6D70001C4
:102918008EAF1AD000018E51800A970FD8B00AD016
:10292800000E0001806F000E816F000E826F000E96
:10293800836F12000001D8908C338B338A3389332C
:1029480000018E3FF7D71BD0170E00018E6512D0FD
:10295800000E0001806F000E816F000E826F000E66
:10296800836F12000001D89089378A378B378C37EC
:1029780000018E0700018E510001D8A4F3D789C049
:1029880080F08AC081F08BC082F08CC083F0120086
:1029980000018235833500018B6F00018B51D8A46B
:1029A8000AD0000E0001806F000E816F000E826F4A
:1029B800000E836F120000018535863500018A6F8D
:1029C80000018A51D8A40AD0000E0001806F000EC1
:1029D800816F000E826F000E836F12000001828FDC
:1029E800FF0E00018017FF0E8117FF0E8217000EE1
:1029F80083170001858FFF0E00018317FF0E8417D0
:102A0800FF0E8517000E8617000E0001866F000E58
:102A1800876F000E886F000E896F7F0E00018B5F35
:102A280000018A51A00F00018B5F200E00018A6F00
:102A38000001D89086378737883789370001835156
:102A48000001805D00018451000181590001855118
:102A5800000182590001865100018359D8A012D083
:102A6800000183510001805F000184510001815BF6
:102A7800000185510001825B000186510001835BE2
:102A8800000186810001D8908037813782378337EB
:102A980000018A2FCDD700018BAF1AD000018B51CE
:102AA800800A9F0FD8B00AD0000E0001806F000E78
:102AB800816F000E826F000E836F12000001D890A4
:102AC800893388338733863300018B3FF7D71BD090
:102AD8001F0E00018B6512D0000E0001806F000EE2
:102AE800816F000E826F000E836F12000001D89074
:102AF800863787378837893700018B0700018B5164
:102B08000001D8A4F3D786C080F087C081F088C0C0
:102B180082F089C083F01200FCEC1FF00C0EE66E08
:102B2800760EE66EF8EC1EF01E0EE66E7E0EE66E73
:102B3800F8EC1EF01C0EE66E7A0EE66EF8EC1EF04F
:102B4800E60EE66E790EE66EF8EC1EF0C50EE66E41
:102B5800780EE66EF8EC1EF0BC0EE66E7B0EE66EA6
:102B6800F8EC1EF0CD0EE66E7F0EE66EF8EC1EF069
:102B7800A6EC1FF081A813D085EC1DF0ACA2FED7FF
:102B8800E0C0ADFFE0C0DFF0A6EC1FF002D085EC9E
:102B98001DF0410E0001E019D8B40ED0F8D7F3ECBF
:102BA80020F03A500001DF6FACA2FED7DFC0ADFFC6
:102BB8000D0EAE18D8A4FCD7000E0001DC6F000E75
:102BC800DB6F300E0001DF19D8B45DD0310E000183
:102BD800DF19D8A41ED014EC21F0D58EFCEC1FF020
:102BE800450EE66E50C0E6FF51C0E6FF97EC20F0B8
:102BF800350EE66E7C0EE66EF8EC1EF0E20E000175
:102C0800F26F7F0E0001F36FA6EC1FF0A6EC1FF029
:102C18003AD0320E0001DF19D8A41ED0E00E000110
:102C2800F26F7F0E0001F36FD59E9D9C819A440E32
:102C3800E66E50C0E6FF51C0E6FF97EC20F0FCECD2
:102C48001FF0E50EE66E7B0EE66EF8EC1EF0A6ECC5
:102C58001FF0A6EC1FF017D0330E0001DF19D8A41F
:102C680003D0E2EC10F00FD04B0EE66E7F0EE66E4E
:102C7800F8EC1EF0A6EC1FF0A6EC1FF0000E000109
:102C8800DC6F010EDB6F0001DB050001DC11D8A44D
:102C9800120042D7FCEC1FF04D0EE66E760EE66E83
:102CA800F8EC1EF01E0EE66E7E0EE66EF8EC1EF0D8
:102CB800E20EE66E7A0EE66EF8EC1EF0B40EE66EE4
:102CC8007A0EE66EF8EC1EF0BC0EE66E7B0EE66E33
:102CD800F8EC1EF0CD0EE66E7F0EE66EF8EC1EF0F8
:102CE800A6EC1FF081A813D085EC1DF0ACA2FED78E
:102CF800E0C0ADFFE0C0DFF0A6EC1FF002D085EC2D
:102D08001DF0410E0001E019D8B40ED0F8D7F3EC4D
:102D180020F03A500001DF6FACA2FED7DFC0ADFF54
:102D28000D0EAE18D8A4FCD7000E0001DC6F000E03
:102D3800DB6F300E0001DF19D8A403D0DAEC09F0FC
:102D48005FD0310E0001DF19D8A422D0FCEC1FF0AF
:102D5800FEEC20F0F288450EE66EEAC0E6FFEBC016
:102D6800E6FF97EC20F0E00EE66E7D0EE66EF8ECDE
:102D78001EF0E20E0001F06F7F0E0001F16FA6EC6D
:102D88001FF0A6EC1FF0A6EC1FF0A6EC1FF038D041
:102D9800320E0001DF19D8A420D0E00E0001F06F38
:102DA8007F0E0001F16FFCEC1FF0F298440EE66E06
:102DB800EAC0E6FFEBC0E6FF97EC20F0A00EE66E57
:102DC8007D0EE66EF8EC1EF0A6EC1FF0A6EC1FF0E8
:102DD800A6EC1FF0A6EC1FF013D04D0EE66E7F0E8A
:102DE800E66EF8EC1EF0A6EC1FF0A6EC1FF0A6ECC1
:102DF8001FF0A6EC1FF0000E0001DC6F010EDB6F68
:102E08000001DB050001DC11D8A4120043D794C0EF
:102E180096F00001976B986B000193350001963787
:102E280001E39781000196510001A06F0001A051B4
:102E3800D8A40AD0000E0001926F000E936F000E06
:102E4800946F000E956F1200170E0001966F92C0D6
:102E580097F093C098F094C099F00001962900016A
:102E68009A6F05D00001D8909933983397330001B1
:102E78009A2FF8D70001975100019B6F0001938F9B
:102E8800FF0E00019217FF0E00019317000E0001BC
:102E980094170001925100019C6F000193510001A9
:102EA8009D6F0001945100019E6F00019F6B8E0E73
:102EB8000001A05F0001A0AF1AD00001A051800A54
:102EC8008F0FD8B00AD0000E0001926F000E936FDA
:102ED800000E946F000E956F12000001D8909F337A
:102EE8009E339D339C330001A03FF7D71BD0170EAC
:102EF8000001A06512D0000E0001926F000E936FC2
:102F0800000E946F000E956F12000001D8909C3748
:102F18009D379E379F370001A0070001A05100018F
:102F2800D8A4F3D700019B510001D8B409D00001FF
:102F38009F1F9E1F9D1F9C6D000E9D239E239F23F8
:102F48009CC092F09DC093F09EC094F09FC095F0F5
:102F58001200E652E652E6520FD0FB0EE350010F84
:102F68003A6EFB0E3AC0E3FF3A6AFC0EE3503A2091
:102F78003A6EFC0E3AC0E3FFFB0EE3CFD9FFFC0E1E
:102F8800E3CFDAFFDF50200AD8B4E7D7FB0EE3CF50
:102F9800D9FFFC0EE3CFDAFFDF50090AD8B4DDD73A
:102FA800FD0EE36AFE0EE36AFF0EE36AFB0EE3CF53
:102FB800D9FFFC0EE3CFDAFFDF502D0AD8A412D0D8
:102FC800FF0EE32AFB0EE350010F3A6EFB0E3AC0E8
:102FD800E3FF3A6AFC0EE3503A203A6EFC0E3AC020
:102FE800E3FF2FD0FB0EE3CFD9FFFC0EE3CFDAFFD0
:102FF800DF502B0AD8B4E6D724D00A0EE66E000EAE
:10300800E66EFB0EE3CFE6FFE3CFE6FF23EC1EF010
:10301800FB0EE3CFD9FFFC0EE3CFDAFFDF503A26F1
:10302800000E3B22D00E446EFF0E456E44503A26E9
:1030380045503B22FD0E3AC0E3FFFE0E3BC0E3FFC6
:10304800C1D7FB0EE3CFD9FFFC0EE3CFDAFFDF5089
:10305800E66E49EC20F03AB0D0D7FF0EE350D8B472
:103068000CD0FD0EE3CF3AF03A1EFE0EE3CF3BF054
:103078003B1E3A2AD8B43B2A06D0FD0EE3CF3AF0DD
:10308800FE0EE3CF3BF0FB0EE126FF0EE22212001C
:10309800000E0001ED6F010EEC6F000E0001CD6F08
:1030A800000ECC6F000E0001DA6F000ED96F000120
:1030B800CDBF08D00001CD5135E1040E0001CC5D33
:1030C800D8B030D0CE0E0001CC25D96E000E00014C
:1030D800CD21DA6ED9C0E6FFDAC0E6FFE8EC20F0D1
:1030E8003A50DF6ED20E0001CC25D96E000E0001D9
:1030F800CD21DA6ECE0E0001CC25E96E000E00015E
:10310800CD21EA6EDE50EE18D8B405D0000E0001CD
:10311800ED6F000EEC6F0001D94BDA2B0001CC4BA0
:10312800CD2BC5D70001EC050001ED11D8A437D08F
:10313800000E0001CB6F000ECA6F0001CBBF08D094
:103148000001CB511CE1020E0001CA5DD8B017D0B6
:10315800E70E0001CA25D96E000E0001CB21DA6EF8
:10316800F4C0E6FFF5C0E6FFE8EC20F03A50DF6E69
:103178000001F44BF52B0001CA4BCB2BDED7E70E31
:10318800E66E000EE66EADEC17F03AC0DDF03BC01F
:10319800DEF02BEC1BF08186DAEC09F0120000015E
:1031A800EC510001ED11D8A41200620EE66E7F0EFC
:1031B800E66EF8EC1EF0A6EC1FF0A6EC1FF06EEC25
:1031C8001EF01200FCEC1FF08E0EE66E760EE66E18
:1031D800F8EC1EF0920EE66E7B0EE66EF8EC1EF032
:1031E800A6EC1FF081A829D0000E1D6E000E1C6EE3
:1031F8001DBE06D01D501BE1040E1C5CD8B017D0B4
:1032080085EC1DF0D20E1C24D96E000E1D20DA6E3E
:10321800E0C0DFFFA6EC1FF0490EE66E770EE66E03
:10322800F8EC1EF01C4A1D2AE3D785EC1DF0410E70
:103238000001E019D8B424D0F8D7000E1D6E000E96
:103248001C6E1DBE06D01D5017E1040E1C5CD8B0C4
:1032580013D0D20E1C24D96E000E1D20DA6EF3ECAA
:1032680020F03A50DF6E490EE66E770EE66EF8EC07
:103278001EF01C4A1D2AE5D70D0EAE18D8A4FCD79F
:10328800000E1B6E010E1A6E000E1D6E000E1C6ED7
:10329800000E0001DA6F000ED96F1DBE06D01D505A
:1032A80022E1040E1C5CD8B01ED0D20E1C24D96EAC
:1032B800000E1D20DA6ED9C0E6FFDAC0E6FFE8ECA2
:1032C80020F0DE503A18D8B404D0000E1B6E000E61
:1032D8001A6E0001D94BDA2B1C4A1D2A1DBEE5D7F0
:1032E8001D5001E1DED71AC017F01BC018F01200FC
:1032F800FCEC1FF0CD0EE66E760EE66EF8EC1EF0D6
:10330800920EE66E7B0EE66EF8EC1EF0A6EC1FF051
:1033180081A829D0000E076E000E066E07BE06D0E3
:1033280007501BE1040E065CD8B017D085EC1DF0E1
:10333800D20E0624D96E000E0720DA6EE0C0DFFF39
:10334800A6EC1FF0490EE66E770EE66EF8EC1EF05E
:10335800064A072AE3D785EC1DF0410E0001E01963
:10336800D8B424D0F8D7000E076E000E066E07BE3C
:1033780006D0075017E1040E065CD8B013D0D20E61
:103388000624D96E000E0720DA6EF3EC20F03A50CE
:10339800DF6E490EE66E770EE66EF8EC1EF0064A12
:1033A800072AE5D70D0EAE18D8A4FCD7000E056E77
:1033B800010E046E000E076E000E066E000E000170
:1033C800DA6F000ED96F07BE06D0075022E1040E4F
:1033D800065CD8B01ED0D20E0624D96E000E072087
:1033E800DA6ED9C0E6FFDAC0E6FFE8EC20F0DE507E
:1033F8003A18D8B404D0000E056E000E046E000111
:10340800D94BDA2B064A072A07BEE5D7075001E150
:10341800DED704C001F005C002F01200010EC26E32
:103428000E0EC16EAC0EC06E9280C282C2B2FED7C2
:10343800C4CF4AF04B6A4A504B6E4A6AC3504A2678
:10344800000E4B224AC0E6FF4BC0E6FF65EC20F0B9
:103458003AC0D6F03BC0D7F03CC0D8F0400EE66E7C
:103468009C0EE66E450EE66EC00EE66E7F0EE66EAC
:10347800440EE66ED6C0E6FFD7C0E6FFD8C0E6FF2A
:103488001DEC13F03AC0E6FF3BC0E6FF3CC0E6FF88
:1034980010EC12F03AC0D6F03BC0D7F03CC0D8F0E0
:1034A800000EE66EFA0EE66EC30EE66ED6C0E6FFB6
:1034B800D7C0E6FFD8C0E6FF76EC0BF03AC0D6F0EE
:1034C8003BC0D7F03CC0D8F0000EE66E200EE66E8A
:1034D800410EE66ED6C0E6FFD7C0E6FFD8C0E6FFCD
:1034E8001DEC13F03AC0D6F03BC0D7F03CC0D8F082
:1034F800000EE66E000EE66E420EE66E660EE66E94
:10350800E60EE66E3F0EE66ED6C0E6FFD7C0E6FFD3
:10351800D8C0E6FF10EC12F03AC0E6FF3BC0E6FF69
:103528003CC0E6FF76EC0BF03AC0D6F03BC0D7F0D3
:103538003CC0D8F01200FC0EE350D8B40AD0FD0EFF
:10354800E35017E1FE0EE35014E1FF0EE350D8A458
:1035580010D0000E3A6E000E3B6E000E3C6E72D01C
:10356800FC0EE32AD890FF0EE332FE0EE332FD0E86
:10357800E332436A446AFF0EE3CF45F0FE0E451678
:10358800D8B415D0EDD7FC0EE32AE150FD0FD96E63
:10359800E250DA6EFF0EDA22DE2A000EDE22DE228A
:1035A800D890FF0EE332FE0EE332FD0EE332436A9B
:1035B800446AFF0EE3CF45F0FF0E4516D8B40AD093
:1035C800E2D7FC0EE306D890FD0EE336FE0EE33696
:1035D800FF0EE336FE0EE3BE06D0FC0EE3CF3AF054
:1035E800020E3A60EED7FC0EE3B002D0FE0EE39E68
:1035F800E150FC0FD96EE250DA6EFF0EDA22D89055
:10360800DF32FC0EE350456E446A436AE150FD0F19
:10361800D96EE250DA6EFF0EDA224350DE124450C1
:10362800DE124550DE12FB0EE350D8B402D0FF0E76
:10363800E38EFD0EE3CF3AF0FE0EE3CF3BF0FF0E34
:10364800E3CF3CF0FB0EE126FF0EE2221200EAC0B7
:10365800E6FFEBC0E6FFE8EC20F03A28D8B425D026
:10366800EAC0E6FFEBC0E6FFE8EC20F0450E3A18AA
:10367800D8A40AD0E20E0001F06F7F0E0001F16FAE
:10368800FEEC20F0F28811D0EAC0E6FFEBC0E6FFBE
:10369800E8EC20F0440E3A18D8A407D0F298E00ECF
:1036A8000001F06F7F0E0001F16F50C0E6FF51C0BE
:1036B800E6FFE8EC20F03A28D8B427D050C0E6FF5F
:1036C80051C0E6FFE8EC20F0450E3A18D8A40AD01D
:1036D800E20E0001F26F7F0E0001F36F14EC21F08F
:1036E800D58E13D050C0E6FF51C0E6FFE8EC20F0BD
:1036F800440E3A18D8A409D0E00E0001F26F7F0EEC
:103708000001F36FD59E9D9C819A4EC0E6FF4FC085
:10371800E6FFE8EC20F03A28D8B412004EC0E6FFE5
:103728004FC0E6FFE8EC20F0420E3A18D8A408D0C3
:10373800E90E0001EE6F7F0E0001EF6F8188120025
:103748004EC0E6FF4FC0E6FFE8EC20F04B0E3A18FB
:10375800D8A41200D70E0001EE6F7F0E0001EF6FA4
:1037680081981200040EE66E790EE66EF8EC1EF0F3
:10377800950EE66E7E0EE66EF8EC1EF0B10EE66E65
:103788007E0EE66EF8EC1EF0A6EC1FF0000E0001AF
:10379800DA6F000ED96F000E0001816F000E806F86
:1037A800000181BF08D0000181512EE1040E000103
:1037B800805DD8B029D0CE0E00018025D96E000ECC
:1037C80000018121DA6EF3EC20F03A50DF6E490EE9
:1037D800E66E770EE66EF8EC1EF0CE0E0001802540
:1037E800D96E000E00018121DA6EDF50E66ED9C075
:1037F800E6FFDAC0E6FF97EC20F00001D94BDA2BA0
:103808000001804B812BCCD70D0EAE18D8A4FCD765
:10381800330EE66E7F0EE66EF8EC1EF0A6EC1FF097
:10382800A6EC1FF0FCEC1FF0E2EC10F0A6EC1FF089
:10383800FCEC1FF06EEC1EF01200000E00018B6F06
:10384800000189AF08D00001886D891FD8B0892B85
:10385800010E00018B6F000187AF08D00001866D53
:10386800871FD8B0872B010E00018B1B000E0001AB
:103878008D6F000E8C6F0001885100018911D8B43A
:103888002CD0010E00018A6F06D00001D89088372D
:10389800893700018A2B000189AFF7D70001D8903A
:1038A8008C378D37000188510001865D00018951F0
:1038B80000018759D8A00AD0000188510001865F0D
:1038C800000189510001875B00018C810001D890BB
:1038D8008933883300018A2FE1D700018B51000119
:1038E800D8B405D000018C6D8D1FD8B08D2B8CC03D
:1038F80086F08DC087F01200000E0001886F000E60
:10390800896F000E8A6F000E8B6F000184510001D1
:1039180085110001861100018711D8B442D0010E2B
:1039280000018C6F08D00001D8908437853786371E
:10393800873700018C2B000187AFF5D70001D8909D
:10394800883789378A378B37000184510001805DB9
:1039580000018551000181590001865100018259F9
:103968000001875100018359D8A012D00001845169
:103978000001805F000185510001815B00018651D3
:103988000001825B000187510001835B000188818F
:103998000001D890873386338533843300018C2F18
:1039A800CDD788C080F089C081F08AC082F08BC0F2
:1039B80083F01200FF0EE3AE19D0800E456E446A04
:1039C800436AFD0EE350435C406EFE0EE3504458DC
:1039D800416EFF0EE3504558426EFD0E40C0E3FFB6
:1039E800FE0E41C0E3FFFF0E42C0E3FFFC0EE3AE54
:1039F80019D0800E456E446A436AFA0EE350435C60
:103A0800406EFB0EE3504458416EFC0EE35045589F
:103A1800426EFA0E40C0E3FFFB0E41C0E3FFFC0E0E
:103A280042C0E3FFFF0EE37EFC0EE37EE150FD0F94
:103A3800D96EE250DA6EFF0EDA22FA0EE350DE5C3F
:103A4800FB0EE350DE58FC0EE350DE58D8B002D02F
:103A58003A9001D03A80FA0EE126FF0EE2221200D7
:103A6800000E0001856F000181AF08D00001806D54
:103A7800811FD8B0812B010E0001856F000183AF33
:103A880005D00001826D831FD8B0832B00018251BD
:103A980000018311D8B426D0010E0001846F06D02E
:103AA8000001D890823783370001842B000183AF4F
:103AB800F7D7000182510001805D000183510001A8
:103AC8008159D8A008D0000182510001805F00010F
:103AD80083510001815B0001D89083338233000158
:103AE800842FE7D7000185510001D8B405D0000123
:103AF800806D811FD8B0812B80C080F081C081F09B
:103B08001200F00E956E010E836E83A802D0310E5E
:103B180041D083AA02D0320E3DD083AC02D0330EFE
:103B280039D083AE02D0410E35D0020E836E83A801
:103B380002D0340E2FD083AA02D0350E2BD083ACFE
:103B480002D0360E27D083AE02D0420E23D0040E08
:103B5800836E83A802D0370E1DD083AA02D0380EF8
:103B680019D083AC02D0390E15D083AE02D0430EE3
:103B780011D0080E836E83A802D02A0E0BD083AA18
:103B880002D0300E07D083AC02D0230E03D083AE10
:103B9800BAD7440E0001E06F81B802D081881200C4
:103BA80081981200000191510001921100019311B6
:103BB80000019411D8B43AD0010E0001956F08D0D5
:103BC8000001D89091379237933794370001952B9D
:103BD800000194AFF5D70001915100018D5D0001FE
:103BE800925100018E590001935100018F59000133
:103BF800945100019059D8A010D0000191510001B2
:103C08008D5F0001925100018E5B0001935100010C
:103C18008F5B000194510001905B0001D8909433B0
:103C28009333923391330001952FD5D78DC08DF002
:103C38008EC08EF08FC08FF090C090F01200E652C8
:103C4800E652FA0EE3CF45F0FC0EE3504502FE0EB5
:103C5800F3CFE3FFFF0EF4CFE3FFFB0EE124D96EB1
:103C6800FF0EE220DA6EDF50456EFC0EE35045028F
:103C7800F3CFF4FFF36AE150FE0FD96EE250DA6E2B
:103C8800FF0EDA22F350DE26F450DD22FA0EE3CFDF
:103C980045F0FD0EE124D96EFF0EE220DA6EDF500A
:103CA8004502F3CFF4FFF36AE150FE0FD96EE250FC
:103CB800DA6EFF0EDA22F350DE26F450DD22FE0E15
:103CC800E3CF3AF0FF0EE3CF3BF0FA0EE126FF0E0A
:103CD800E2221200E652E652790EE66E7F0EE66E9A
:103CE800F8EC1EF0FE0EE36AFF0EE36AFE0EE3CF69
:103CF8003BF0FF0EE3CF3CF0D20E3B24D96E000E12
:103D08003C20DA6EF3EC20F03A50DF6E490EE66E96
:103D1800770EE66EF8EC1EF0FE0EE350010F3A6ED9
:103D2800FE0E3AC0E3FF3A6AFF0EE3503A203A6EBD
:103D3800FF0E3AC0E3FFFF0EE3BED8D7FF0EE350F5
:103D480007E1FE0EE3CF3AF0040E3A5ED8A0CED7D4
:103D58000D0EAE18D8A4FCD74CEC18F0E552E5527D
:103D68001200000E0001846F010E836F000E000127
:103D7800866F000E856F000E0001DA6F000ED96F96
:103D8800000186BF08D00001865129E1040E000118
:103D9800855DD8B024D0D20E00018525D96E000EDD
:103DA80000018621DA6ED9C0E6FFDAC0E6FFE8EC4A
:103DB80020F0DE503A18D8B405D0000E0001846F08
:103DC800000E836F0001D94BDA2B0001854B862B3F
:103DD800000186BFE0D70001865101E1D7D783C033
:103DE80080F084C081F01200AB9825D0ACA2FED739
:103DF800FE0EE3CFF6FFFF0EE3CFF7FF050EF764E5
:103E080003D00800F55005D0F6CFE9FFF7CFEAFF59
:103E1800EF50AD6EACB2FED7FE0EE350010F3A6E16
:103E2800FE0E3AC0E3FF3A6AFF0EE3503A203A6EBC
:103E3800FF0E3AC0E3FFFE0EE3CFF6FFFF0EE3CF1F
:103E4800F7FF050EF76403D00800F55005D0F6CF4C
:103E5800E9FFF7CFEAFFEF500009D8A4C7D7AB882E
:103E6800E552E55212008E0E0001886F08D000015D
:103E7800D89083338233813380330001882B000E3E
:103E8800000180150001846F000E000181150001FA
:103E9800856F000E000182150001866FFF0E00017C
:103EA80083150001876F000184510001851100010D
:103EB800861100018711D8A4DAD7000EE66E00013A
:103EC8008851E66E80C0E6FF81C0E6FF82C0E6FF4B
:103ED8009FEC1AF03AC080F03BC081F03CC082F001
:103EE80012001C0EF66E420EF76E000EF86E00EE13
:103EF800EAF020EE0CF00900F5CFEEFFDD50D950C6
:103F0800FAE12E0EF66E420EF76E000EF86E00EE17
:103F18004EF020EE04F00900F5CFEEFFDD50D95049
:103F2800FAE100EECEF01C0EEE6AE806FDE100EEC6
:103F380046F0080EEE6AE806FDE1000EF86E000194
:103F4800D3EF1FF0E652E652FE0EE36AFF0EE36A75
:103F5800410E3A6EEE0EE82EFED73A2EFCD700D070
:103F6800FE0EE350010F3A6EFE0E3AC0E3FF3A6AC6
:103F7800FF0EE3503A203A6EFF0E3AC0E3FFFF0E01
:103F8800E3BEE6D7FF0EE35007E1FE0EE3CF3AF0BB
:103F9800320E3A5ED8A0DCD7E552E5521200000E88
:103FA8004D6E000E4C6E93988198FEEC20F00E0E2C
:103FB800C16E939ADCEC20F09E9C9F9C9D9CCFEC5C
:103FC80020F0FCEC1FF012EC1AF0A6EC1FF0A6ECA7
:103FD8001FF0000EE66E000EE66EE8EC20F03A28C0
:103FE800D8A403D0B6EC1BF002D06EEC1EF0FFD7BD
:103FF80007EC21F0860EE66E780EE66EF8EC1EF001
:104008004B0EE66E770EE66EF8EC1EF0C90EE66E05
:10401800770EE66EF8EC1EF00C0EE66E770EE66E86
:10402800F8EC1EF08A0EE66E770EE66EF8EC1EF0DF
:10403800860EE66E780EE66EF8EC1EF012000001B1
:104048008C5100018D1100018E11D8B409D0000ED9
:1040580000018C1B000E00018D1B800E00018E1BC1
:104068008CC0E6FF8DC0E6FF8EC0E6FF89C0E6FF84
:104078008AC0E6FF8BC0E6FF76EC0BF03AC089F009
:104088003BC08AF03CC08BF01200E652FF0EE36A98
:10409800FE0EE3CF3AF03A0E3A6009D0FE0EE3CFB7
:1040A8003AF02F0E3A6403D0FF0EE36AE32AFF0EBC
:1040B800E3CF45F045303A90D8B03A80E552E55222
:1040C8001200000EE66E8E0EE66EFC0EE3CF44F094
:1040D800FD0EE3CF45F044C040F045C041F0426AD0
:1040E80040C0E6FF41C0E6FF42C0E6FF9FEC1AF081
:1040F800E552E552120000018051000181110001D2
:104108008211D8B409D0000E0001801B000E0001F6
:10411800811B800E0001821B80C080F081C081F06D
:1041280082C082F01200FE0EE3CFA9FFFD0EE3CF9E
:10413800A8FFA69EA69CA684550EA76EAA0EA76EDB
:10414800A682A6B2FED7E552E552E5521200E90E64
:104158000001EE6F7F0E0001EF6F420EE66E4EC05B
:10416800E6FF4FC0E6FF97EC20F0818807EC21F0CE
:104178001200D70E0001EE6F7F0E0001EF6F4B0E9D
:10418800E66E4EC0E6FF4FC0E6FF97EC20F0819840
:1041980007EC21F01200F28CF28EF294F28AF1947C
:1041A800060ED56E670ED76E6A0ED66E819A12000D
:1041B8000F0EAF6E948E949CAC98AC94AB9CAC9C58
:1041C800AB8EAC8AAB881200FE0EE3CFA9FFA69E89
:1041D800A69CA680A8CF3AF0E552E5521200E65216
:1041E8009EAAFED7FF0EAECFE3FFFF0EE3CF3AF055
:1041F800E5521200D08EF298F19CF292939493803B
:10420800819493961200F60EE66E7F0EE66EF8EC39
:104218001EF01200E0000100D77FE07FE07FD000B1
:0C4228009E9C9D8C1200E300E10012003F
:1075540000010000000A00000064000000E80300CD
:107564000010270000A086010040420F008096987A
:107574000000E1F50500CA9A3B00803FCDCC3DD721
:10758400233C12833AB7D138C62737388635C0D65C
:1075940033CC2B32708930E7DB2EE53C1E42A20D42
:1075A40000803F00204100C842007A44401C4650FD
:1075B400C34724744997184BBCBE4C6B6E4E0315DD
:1075C4005079AD60F349710A0D2A2A2A2A2A2A2AF7
:1075D4002A2A2A2A2A2A2A2A2A2A2A2A2A2A2A2A07
:1075E4002A2A2A2A2A2A2A2A2A2A2A2A2A2A2A2AF7
:1075F4002A2A2A2A2A2A2A2A2A2A2A2A2A2A2A2AE7
:107604002A2A2A2A2A0A0D000A0D2A2A2A2A2A2A7A
:107614002A2A2A2020202020202054656D7065729B
:1076240061747572652053656E736F7220416C616D
:10763400726D204D656E7520202020202020202092
:107644002A2A2A2A2A2A2A2A000A0D2A2A2A2A2AFD
:107654002A2A2A2A20202020202020504952205340
:10766400656E736F7220416C61726D204D656E752D
:1076740020202020202020202020202A2A2A2A2AD4
:107684002A2A2A2A2A2A2A2A2A000A0D21212121E1
:107694002121212120202054454D5045524154554B
:1076A40052452053454E534F5220484153204245A2
:1076B400454E205452495050454420202020212139
:1076C4002121212121212121000A0D2121212121F2
:1076D4002121212121212121205049522053454E8D
:1076E400534F522048415320444554454354454444
:1076F400204D4F54494F4E20202121212121212169
:1077040021212121212121000A0D2A2020202020AD
:107714002020202020202020202020202020202065
:1077240020202020204C616237202020202020208F
:107734002020202020202020202020202020202045
:1077440020202020202A000A0D2A2020202020206A
:107754002020202020202020202020202020204104
:107764006C61726D2053797374656D202020202024
:107774002020202020202020202020202020202005
:10778400202020202A000A0D2A202020202020202A
:1077940020202020202020202020202020202020E5
:1077A400536872657920417279616C202020202011
:1077B40020202020202020202020202020202020C5
:1077C4002020202A000A0D2A2020202020202020EA
:1077D4002020202020202020202020456D62656468
:1077E4006465642053797374656D7320312020209F
:1077F4002020202020202020202020202020202085
:1078040020202A000A0D2A2A2A2A2A2A2A2A2A2059
:1078140020202020202020202020204D61696E205F
:107824004D656E752020202020202020202020203F
:10783400202020202A2A2A2A2A2A2A2A2A2A2A2ACC
:107844002A2A000A0D2A2A2A2A2A2A2A2A2A20200F
:107854002020202020202050617373636F646520F2
:107864004D656E75202020202020202020202020FF
:107874002020202A2A2A2A2A2A2A2A2A2A2A2A2A82
:107884002A000A0D2A2A2A2A2A2A2A2A2A2A2A2ABB
:107894002A2A2A2A2A2A2A2A2A2A2A2A2A2A2A2A44
:1078A4002A2A2A2A2A2A2A2A2A2A2A2A2A2A2A2A34
:1078B4002A2A2A2A2A2A2A2A2A2A2A2A2A2A2A2A24
:1078C400000A0D20202020202020202020202020FD
:1078D40020202020332E4368616E67652054656D37
:1078E40070657261747572652053656E736F722072
:1078F400416C61726D205468726573686F6C6400CA
:107904000A0D57656C636F6D6520557365722E2083
:10791400546869732069732074686520666972739A
:10792400742074696D6520796F75206861766520AF
:107934006C6F6767656420696E000A0D20456E747C
:1079440065722054656D706572617475726520741A
:1079540068726573686F6C6420696E204661687232
:10796400656E68656974283220646967697473296F
:107974003A20000A0D202020202020352E55736542
:10798400204B657970616420617320746865206F91
:107994006E6C7920696E7075742028274127203D0C
:1079A40020456E746572204B657929000A0D576F66
:1079B400756C6420796F75206C696B6520746F2019
:1079C40075706461746520746865205468726573A9
:1079D400686F6C642054656D70657261747572654E
:1079E4003F000A0D202020202020202020202020BD
:1079F4002020202020322E44697361626C6520545B
:107A0400656D70657261747572652053656E736F10
:107A14007220416C61726D000A0D2020202020200C
:107A24002020202020202020202020312E456E617F
:107A3400626C652054656D70657261747572652041
:107A440053656E736F7220416C61726D000A0D2074
:107A54002020202020342E557365204B6579626FD9
:107A6400617264285465726D696E616C292061735A
:107A740020746865206F6E6C7920696E707574006F
:107A84000A0D496E636F727265637420506173737B
:107A9400776F72642E2043616E6E6F742063686129
:107AA4006E67652070617373776F72642E0A0D00C0
:107AB4000A0D2020202020202020202020202020EB
:107AC400202020322E44697361626C652050495233
:107AD4002053656E736F7220416C61726D000A0DE4
:107AE4002020202020202020202020202020202092
:107AF40020312E456E61626C6520504952205365D9
:107B04006E736F7220416C61726D000D0A456E7464
:107B14006572207468652070617373776F72642076
:107B2400746F2072657365742074686520616C617C
:107B3400726D3A200A0D000A0D2054454D504552ED
:107B440041545552452053454E534F5220414C41C8
:107B5400524D204953204B45505420454E41424CF0
:107B64004544000A0D202020202020332E54656D2A
:107B740070657261747572652053656E736F7220DF
:107B8400416C61726D204F7074696F6E73000D0AE1
:107B9400456E746572207468652070617373776FC5
:107BA400726420746F207265736574207468652034
:107BB400616C61726D3A20000A0D20202020202083
:107BC4002020202020202020202020302E526574C8
:107BD40075726E20746F204D61696E204D656E75EF
:107BE400000A0D2054656D706572617475726520AC
:107BF40053656E736F7220416C61726D20446973BA
:107C040061626C65642E0A0D000A0D446973616239
:107C14006C65207468652054656D70657261747557
:107C240072652053656E736F7220416C61726D3F93
:107C3400000A0D2054656D7065726174757265205B
:107C440053656E736F7220416C61726D20456E6175
:107C5400626C65642E0A0D000A0D2020202020206D
:107C64002020202020202020202020312E43686145
:107C74006E67652070617373636F6465000D0A59E4
:107C84006F75722050617373776F726420686173CB
:107C9400206265656E206368616E676564210A0D04
:107CA400000A0D43757272656E7420496E707574A6
:107CB400204D6574686F643A202020202020202005
:107CC40020202020000A0D5049522053656E736F06
:107CD4007220416C61726D2053746174653A202086
:107CE4002020202020202020000A0D54656D70657E
:107CF40072617475726520416C61726D2053746198
:107D040074653A202020202020202020000A0D54D1
:107D1400656D706572617475726520416C61726D18
:107D2400205468726573686F6C643A2020202020A8
:107D3400000A0D43757272656E742054656D70652A
:107D44007261747572652052656164696E673A2068
:107D540020202020000A0D205049522053454E5324
:107D64004F5220414C41524D204953204B455054D1
:107D740020454E41424C4544000A0D20202020203D
:107D840020322E5049522053656E736F7220416C1D
:107D940061726D204F7074696F6E73000A0D20500C
:107DA40049522053656E736F7220416C61726D206D
:107DB40044697361626C65642E0A0D000A0D44699E
:107DC4007361626C65207468652050495220536564
:107DD4006E736F7220416C61726D3F000A0D20500A
:107DE40049522053656E736F7220416C61726D202D
:107DF400456E61626C65642E0A0D000D0A456E7451
:107E04006572206E65772034206469676974207018
:107E1400617373776F72643A20000A0D53656C6561
:107E24006374204F6E65206F662074686520466F0A
:107E34006C6C6F77696E673A000A0D435552524570
:107E44004E5420535441545553204F4620434F4DD4
:107E5400504F4E454E5453000A0D456E61626C6599
:107E6400203D203120616E642044697361626C6539
:107E7400203D2030000A0A0A0D456E7465722030D8
:107E840020746F20676F206261636B2121210A0DCA
:107E9400000D0A4C65747320736574207570207925
:107EA4006F75722050617373776F7264000D0A45A9
:107EB4006E7465722034206469676974207061731C
:107EC40073776F72643A20000A0D2020202020204E
:107ED400312E50617373636F6465204F7074696FE2
:107EE4006E73000A0D456E74657220437572726577
:107EF4006E742050617373636F64653A000A0A0AF2
:107F04000D2020302E52656672657368204D6169BC
:107F14006E204D656E75000A0D496E636F72726551
:107F240063742050617373776F72642E0A0D000AB4
:107F34000D50617373776F7264205265676973744F
:107F4400657265640A0D000A0D496E76616C696498
:107F54002053656C656374696F6E2E0A0D000A0DFB
:107F6400496E636F72726563742050617373776FC7
:107F740072640A0D000D0A456E746572207468659A
:107F84002070617373776F72643A20000A0D59454B
:107F940053203D203120616E64204E4F203D20301F
:107FA40000496E76616C69642053656C656374691D
:107FB4006F6E0A0D000A0D496E76616C6964205378
:107FC400656C656374696F6E000A0D496E70757433
:107FD4003A20004B4559424F41524400494E4143D7
:107FE40054495645004B45595041440025322E32E0
:0B7FF40066001B5B324A0025640000A1
:020000040020DA
:08000000FFFFFFFFFFFFFFFF00
:020000040030CA
:0E000000FF02191EFF8181FF0FC00FE00F40AD
:00000001FF
